:0400000050EF00F0CD
:100008004882FACF31F0FBCF32F0E9CF33F0EACFB4
:1000180034F0E1CF35F0E2CF36F0D9CF37F0DACF90
:1000280038F0F3CF39F0F4CF3AF0F6CF3BF0F7CF12
:100038003CF0F8CF3DF0F5CF3EF09DBA9EAA03D034
:1000480052EC00F00BD09DB89EA803D0ACEC00F0A9
:1000580005D09DB09EA002D00FEC01F03EC0F5FF88
:100068003DC0F8FF3CC0F7FF3BC0F6FF3AC0F4FFC5
:1000780039C0F3FF38C0DAFF37C0D9FF36C0E2FF16
:1000880035C0E1FF34C0EAFF33C0E9FF32C0FBFFEF
:1000980031C0FAFF48921100F9EF00F0ABA202D08C
:1000A800AB98AB88AECF30F02ABE12002A5016E1CA
:1000B800180E295CD8B012D024EC01F029502A106F
:1000C800D8B42FEC01F0010E2924D96E000E2A2095
:1000D800DA6E30C0DFFF294A2A2A12002A8E12005F
:1000E8009D9A9D98480EA76E900EAB6E260EAC6E2C
:1000F800A00EAF6E010E7D6E000E2E6E000E2F6EDE
:10010800080E476E000E2C6E000E2D6E000E2B6E24
:100118009D8A000E2A6E000E296E2BEC01F012004B
:100128003FC041F040C042F041504210D8B41200E4
:10013800000E446E6E0E436E43504410D8B404D083
:100148004306D8A04406F8D74106D8A04206ECD703
:10015800080E476012D02F50010D210EF324D96EDE
:10016800000EF420DA6EDF50AD6E2F2A070E2F64D2
:1001780002D0000E2F6E472A12009D98120004EC40
:1001880001F0F28EF28C2AAEFED7000E2A6E000E17
:10019800296E82868284000E406EC80E3F6E94ECF3
:1001A80000F082968294EFD7000ECD6E000EAA6EF4
:1001B800630ECF6EC00ECE6ECECF45F0CFCF46F0D9
:1001C8009E909D8029EC01F01200000E896E9268C5
:1001D800000E8A6EFE0E936E000E0F015B6F000E0E
:1001E8008B6EE30E946EF18E120000EE01F02F0E6E
:1001F800EE6AE806FDE1489048920001C3EF00F07E
:1002080018EC01F0E9EC00F01FEC01F074EC00F0E0
:10021800D8EC00F012009E904650CF6E45C0CEFF3D
:100228002A8E2DEC01F01200720ED36E040ED26EDF
:10023800400E9B6E1200D09E9F9A9F989F9012002E
:100248004650CF6E45C0CEFF1200CD801200CD9033
:0A0258001200CD901200CD801200BC
:020000040020DA
:08000000FFFFFFFFFFFFFFFF00
:020000040030CA
:0E0000001D187F7CFF8991FF0FC00FE00F409D
:00000001FF
