:0400000050EF00F0CD
:100008005182FACF40F0FBCF41F0E9CF42F0EACF7E
:1000180043F0E1CF44F0E2CF45F0D9CF46F0DACF54
:1000280047F0F3CF48F0F4CF49F0F6CF4AF0F7CFD6
:100038004BF0F8CF4CF0F5CF4DF09DBA9EAA03D007
:10004800BEEC01F00BD09DB89EA803D01FEC02F0C7
:1000580005D09DB09EA002D06DEC02F04DC0F5FF1A
:100068004CC0F8FF4BC0F7FF4AC0F6FF49C0F4FF89
:1000780048C0F3FF47C0DAFF46C0D9FF45C0E2FFDA
:1000880044C0E1FF43C0EAFF42C0E9FF41C0FBFFB3
:1000980040C0FAFF5192110057EF02F062EC02F0F3
:1000A8003FEC01F0F28EF28C2CAE6ED0000E2C6E6E
:1000B800000E2B6E82868284000E0001616FC80ECE
:1000C800606F00EC02F082968294420E0118D8A468
:1000D8005BD0000E00016C6F000E6B6F000E00010C
:1000E8006D6F150E00016D6501D015D000016D51C1
:1000F800010D010EF324D96E000EF420DA6EDF50E4
:100108000001666F0001665100016B27000E6C2329
:1001180000016D2BE6D718C066F0080E00016627AF
:1001280017500001676F686B0001662B04D0D890E8
:100138000001673768370001662FF9D767C069F093
:1001480068C06AF00001695100016B191DE10001E6
:100158006A5100016C19D8A417D00EC066F0080EB9
:10016800000166270D500001676F686B0001662B60
:1001780004D0D8900001673768370001662FF9D797
:1001880067C029F068C02AF0D0EC00F00009D8B4A4
:100198008BD794EC01F088D7000E0001606F60AE39
:1001A8001CD063CF3BF064CF3CF061CF3DF062CF11
:1001B8003EF065CF3AF066CF32F067CF33F068CFC4
:1001C80034F069CF35F06ACF36F06BCF37F06CCFAB
:1001D80038F06DCF39F0609E3FD00F0130AF1DD0A1
:1001E80033CF3BF034CF3CF031CF3DF032CF3EF04F
:1001F80035CF3AF036CF32F037CF33F038CF34F04E
:1002080039CF35F03ACF36F03BCF37F03CCF38F026
:100218003DCF39F00F01309F1FD00E0180AF1FD0A6
:1002280083CE3BF084CE3CF081CE3DF082CE3EF0D2
:1002380085CE3AF086CE32F087CE33F088CE34F0D1
:1002480089CE35F08ACE36F08BCE37F08CCE38F0AA
:100258008DCE39F00E01809F010E0001606F000104
:100268006005D8A406D0000E0001606F7792010ED9
:100278001200000E1200800E6F6E6E38E832070B07
:10028800040AD8A4FAD7000E726E830E0E01436FCB
:10029800B80E0E01446F050E0E01456F000E0E01DB
:1002A800FA6F000E0E01FB6F0E01F869E00E0E01E9
:1002B800F96F000E0E01FE6F000E0E01FF6F0E01AA
:1002C800FC69E00E0E01FD6F030E0E01466F000E75
:1002D8000E01476F000E0E01E26F000E0E01E36F74
:1002E800320E0E01E06FC00E0E01E16F000E0E011E
:1002F800EA6F000E0E01EB6F330E0E01E86FC00EB1
:100308000E01E96F000E6F6E6E38E832070B0009B8
:10031800D8B4FAD7000E606E000E0F01306F1200CD
:10032800000E0F01236F000E0F01246F6B0E0F01DB
:10033800216FC00E0F01226F030E0F01256FAA0E49
:100348000F01266FCC0E0F01276F550E0F01286F76
:10035800000E0F01296F000E0F012A6F000E0F010A
:100368002B6F000E0F012C6F000E0F012D6F0F0168
:1003780020871200ABA202D0AB98AB88AECF3FF07B
:100388002CBE12002C5016E1180E2B5CD8B012D0DF
:1003980082EC02F02B502C10D8B48DEC02F0010E38
:1003A8002B24D96E000E2C20DA6E3FC0DFFF2B4ABB
:1003B8002C2A12002C8E12009D9A9D98480EA76E2A
:1003C800900EAB6E260EAC6EA00EAF6E010E7D6E5B
:1003D800000E306E000E316E080E506E000E2E6E3E
:1003E800000E2F6E000E2D6E9D8A000E2C6E000ED4
:1003F8002B6E89EC02F0120060C062F061C063F0FD
:100408000001625100016311D8B41200000E00010E
:10041800656F6E0E646F0001645100016511D8B4F8
:1004280005D000016407D8A06507F5D70001620769
:10043800D8A06307E5D7080E506012D03150010DDF
:10044800210EF324D96E000EF420DA6EDF50AD6E63
:10045800312A070E316402D0000E316E502A120084
:100468009D981200000ECD6E000EAA6E630ECF6E20
:10047800C00ECE6ECECF4EF0CFCF4FF09E909D8067
:1004880087EC02F01200000E896E9268000E8A6EE8
:10049800FE0E936E000E0F015B6F000E8B6EE30E67
:1004A800946EF18E120000EE01F03E0EEE6AE80640
:1004B800FDE151905192000152EF00F076EC02F00C
:1004C80047EC02F07DEC02F0E0EC01F036EC02F0D3
:1004D80012009E904F50CF6E4EC0CEFF2C8E8BECEC
:1004E80002F012007C0ED36E040ED26E400E9B6E8C
:1004F8001200D09E9F9A9F989F9012004F50CF6EE7
:100508004EC0CEFF1200CD801200CD901200CD90CB
:060518001200CD8012006C
:020000040020DA
:08000000FFFFFFFFFFFFFFFF00
:020000040030CA
:0E0000001D187F7CFF8991FF0FC00FE00F409D
:00000001FF
